:020000042000DA
:10000000554F5343000101000200000000000000B2
:1000100057000020AB0000200F0500202505002020
:100020004B0000204D0000202705002000000000AC
:1000300000000000000000000000000000000000C0
:040040000507002090
:100048007047704770477047704770477047104B4C
:10005800104A2DE9F041884607460021934202D014
:1000680003F8011FFAE70C4B0C4CE41AA410002506
:100078001E46A54205D056F8253003B198470135EC
:10008800F7E74146384600F00BF8BDE8F08100BFBD
:10009800FF0700208F0800204000002044000020B7
:1000A8007047F8B5C14C8688C14FDFEDC26A00239E
:1000B8000D4694F83C1084F83C303312962BF6B277
:1000C80007EE906AD8BF1E4603F10103DBB2C8BF32
:1000D8009726962B88BF9723F8EEE77A07EB8606D4
:1000E80007EB830396ED007A67EEA67AD3ED006AF4
:1000F80076EEC76A2DED0E8BA7EEA67ADFEDAE6A17
:10010800F0EE477A9FEDAD7AF4EEC77AF1EE10FA89
:10011800A8BFF0EE477A94ED0E7AA7EEA67A8E077E
:10012800D4ED147ADFEDA66A84ED067AB0EE476A5C
:10013800A7EEA66ADFEDA36A84ED076A67EEA67AE2
:10014800F6EE006AE7EE267AC4ED087A11D594F83F
:1001580054300F2B09D91F2B97BF103B203BDBB224
:10016800994E84BF994EDBB200E0994E56F8233081
:1001780023604B0711D594F855300C2B09D91B2B4C
:1001880097BF0D3B1C3BDBB2924E84BF924EDBB255
:1001980000E0924E56F8233063600F0744BF8C4B43
:1001A80094F8566090ED007A44BF53F82630A36067
:1001B8004E0648BF0023BAEEE07A42BFE3602361EF
:1001C80063618906794B84ED097A2AD5D3ED127AD1
:1001D800DFED836A834967EEA66AC3ED0B6ADFED3C
:1001E800826A67EEA67AFCEEE76A16EE900A06EED9
:1001F800100AB8EE466A01EB800677EEC67AD6EDAD
:10020800006A96ED016A36EE666AE7EE866AB7EE30
:10021800006AF0EE667AC3ED0C6AC6EE276AC3ED93
:100228000D6A94ED0AAAD4ED039A94ED049AD4EDDC
:10023800058AD4ED10AA94ED11BADFED6CBA9FEDE2
:100248006CCA07EE902A37EE4A7AF8EE677A05EB21
:100258008206C7EE27CAB54200F04A812268606864
:10026800D4ED136A9FED607A7AEE266ABCEEC96A0D
:1002780076EEEB7AB8EE466AF5EEC07AF1EE10FA51
:10028800B8BFF0EE6B6A76EECC7A39EE466AF5EED8
:10029800407AFCEEE97A26EE076AF8EE677AFCEE19
:1002A800C63A79EEE77AF1EE10FA67EE877AF7EE5A
:1002B800005ABCEEE74AA8BFF0EE4C6A14EE103ABA
:1002C80003F07F0302EB8301D1ED004A13EE901A8D
:1002D80001F07F0100EB81070131F8EE633A01F08C
:1002E8007F0100EB810136EE636A97ED005AD1ED8C
:1002F800003A013373EEC53A03F07F0302EB830340
:10030800A6EE235AA26893ED006AB8EE444A36EE88
:10031800646A77EEC47A35EEE63AE7EE864AFCEE92
:10032800E87A65EE266AF8EE677AE3EE246A78EEF4
:10033800E77AB0EE65DA27EE877AFFEE00DABCEEF0
:10034800C76A16EE103A03F07F0302EB830101330C
:10035800B8EE466A03F07F0302EB830337EE467A72
:10036800D1ED007A93ED006A36EE676AE7EE067A19
:1003780035EEEA6A2AEEA77AA6EE867A75EECB6A99
:1003880067EE277A67EE8B7AE7EE267A37EEA57A5C
:10039800B5EEC07AF1EE10FA2CDBF4EEE57AF1EE68
:1003A80010FAA8BFF0EE657A26E000BF000800202A
:1003B80000F100088180803B3EC3AE3749FFB84654
:1003C8003EC3AE3617B751366C540108EC740108B9
:1003D800E8310108C4AB01083CCA01085C91010876
:1003E80077CCAB326CFF0008000000430AD7A33B70
:1003F80052B87E3FF0EE6D7A94ED167A94ED1B8A32
:10040800D4ED176A94ED0BEAA7EE278A94ED197AD2
:1004180027EE487AA6EEA77A84ED1B7A00F0E8F971
:10042800AEEE008AD4ED0C7A94ED1D7AD4ED226AF2
:1004380094ED1E6A28EE278A18EE103A03F000435E
:1004480043F07C5307EE903A38EE278AD4ED0D7AC4
:10045800BDEEC88AB8EEC88A68EE277AE7EE876AE2
:1004680094ED207A27EE667AF4EEED6AA7EE867AA6
:10047800F1EE10FA84ED227A0BDBF4EECD6AF1EEA0
:1004880010FAB7EE007AB4BFF0EE667AF0EE477A6B
:1004980001E0FFEE007A27EEA77AF4EE006A27EE75
:1004A800C77A3AEE2CAAE7EE267AFEEEE07AE5EC79
:1004B800017AD4ED067A79EEA79AFCEEE97AF8EE9D
:1004C800677A79EEE79AD4ED077A39EE279AFCEE47
:1004D800C97AF8EE677A39EE679AD4ED087A78EE39
:1004E800A78AFCEEE87AF8EE677A78EEE78AB2E651
:1004F800C4ED039A84ED049AC4ED058A84ED0AAA32
:10050800BDEC0E8BF8BD044A92F83C3043F0400332
:1005180082F83C30704700BF000800207047072869
:1005280000F2AE80DFE800F00413222E5370939F90
:10053800544B2E20B1FBF0F200FB121193F83C2033
:1005480083F8541042F0020283F83C2070474D4B68
:100558002C20B1FBF0F200FB121193F83C2083F839
:10056800551042F0040283F83C207047454B93F83D
:100578003C2001F00F0142F0080283F8561083F87E
:100588003C20704707EE901A9FED3F7ADFED3F6AF7
:10059800F8EEE77A67EE877A9FED3D7AA7EEA67ABE
:1005A800B5EEC07AF1EE10FAF0EE477A09DBB7EE55
:1005B800007AF4EEC77AF1EE10FAA8BFF0EE477AA7
:1005C80001E0DFED347A2F4BC3ED107A704707EE68
:1005D800901A9FED2D7AF8EEE77A67EE877AF5EEB6
:1005E800C07AF1EE10FA09DBB7EE007AF4EEC77ABA
:1005F800F1EE10FAA8BFF0EE477A01E0DFED257AB8
:10060800204BC3ED117A704707EE901A9FED1E7AC2
:10061800F8EEE77A67EE877AF5EEC07AF1EE10FA2F
:1006280009DBB7EE007AF4EEC77AF1EE10FAA8BF4C
:10063800F0EE477A01E0DFED177A124B93F83C2091
:10064800C3ED127A42F0200283F83C20704707EE8F
:10065800901A9FED117A0B4BF8EEE77A67EE877ADE
:10066800C3ED137A704707EE901ADFED0B6A054B5E
:10067800F8EEE77AB7EE007AA7EEA67A83ED147A59
:10068800704700BF000800200AD7233C6666663F13
:10069800CDCC4C3D000000000820803A124B134A94
:1006A8001B68126810B503608360114B4260836158
:1006B800C3614FF07E520F4B036202630023426313
:1006C800002243628362C36280F83C20C3600361F6
:1006D8004361044600F08CF8DFED077A20EE270A24
:1006E800204684ED0E0A10BDE83101085C9101082E
:1006F800C92F163CC92F963B8AD08B352DE9F0437C
:10070800354CDFF8E89091B02046FFF7C7FF002589
:100718004FF0000868466E46C4F840906564A564CA
:10072800E564256584F8548084F8558084F85680FB
:10073800A565E56525666566A566E5662567656759
:10074800A567E567C4F88050C4F88450C4F8885099
:10075800C4F88C50FFF7A2FF0FCE27460FC70FCE65
:100768000FC70FCE0FC796E80F0007C73B701B4B8C
:10077800C4F84090A3651A4B63661A4BDFED1A6AFA
:10078800D3EDEB7A93EDEC7A656437EE677AA5647E
:10079800E7EE267AE5642565F7EE006A37EEA67A75
:1007A80084F8548087EE876A84F8558084F85680E8
:1007B800E5652566A566E567C4F8845077EEE67AB0
:1007C80084ED1E6AC7EE876A84ED1D6AC4ED206A4F
:1007D80011B0BDE8F08300BF00080020CCCC4C3E2F
:1007E800CDCC4CBF64F7000800F8D03DCDCC4C3DD3
:0807F8005FF800F0B9ED010803
:040000052000005780
:00000001FF
