:020000042001D9
:10780000554D4F440001010002000000000000003F
:107810004F780120B97801204B780120477801206A
:10782000A97A012000000000000000000000000014
:107830000000000000000000000000000000000048
:04784000F97A0120B0
:1078440070477047704770477047104B104A2DE9D6
:10785400F041884607460021934202D003F8011FF5
:10786400FAE70C4B0C4CE41AA41000251E46A54262
:1078740005D056F8253003B198470135F7E741465E
:10788400384600F00BF8BDE8F08100BF0F7B012003
:10789400237B01204078012044780120034B044AD3
:1078A4004FF0004183E80600704700BF107B0120C1
:1078B400925F2C012DE9F043734C079D94ED036A0C
:1078C4002768666894ED023A94F810E0DFED6F2AB9
:1078D4009FED6F5A9FED6F7A9FED6F4A9FED6F2A70
:1078E400DFED6F3AED0001EB050CF0190833F0EE13
:1078F400465AF7EE006AFFEE004A4FF080486145B1
:1079040000F0B98073EE651AE1EEA25ABEF10B0FD6
:1079140000F2A280DFE80EF006090E151C33404A7F
:10792400516D849307EE900A50E04FEAE07980EAC3
:10793400090269E007EE900AF8EEE77A67EE877AC3
:107944008AE00028ACBFF0EE667AF0EE647A83E059
:1079540007EE900AF8EEE71AB0EE001A61EE877AA5
:1079640017EE902A22F0004201EE902A71EEE61AF8
:1079740061EEA71AF6EE007AE1EE817A6CE007EE8A
:10798400900AF8EEE77A67EE877A17EE902A22F0EB
:10799400004207EE902A5FE0421088FA82F207EE76
:1079A400902AF8EEE77A67EE877A55E00028ACBFB4
:1079B400F0EE667AF0EE427A4EE066EE047AFDEE80
:1079C400E77A17EE902A024407EE902AF8EEE77A57
:1079D40067EE871A11EE902A22F0004207EE902AF1
:1079E40077EEE67A67EEA17AF1EE001A67EEA17AF5
:1079F40032E066EE047AFDEEE77A17EE902A02444E
:107A04004FEAE27982EA090289FAA2F288FAA2F23A
:107A1400520007EE902AF8EEE77A67EE877A1BE0C9
:107A240066EE057AFDEEE77A17EE902A00EB420245
:107A340007EE902AF8EEE77A67EE877A0CE066EEB6
:107A4400057AFDEEE77A17EE902A10EB42024CBF5E
:107A5400F0EE647AF0EE667A67EEA37A304417EEBD
:107A6400902A41F8082B083341ED017A43ED047A5A
:107A740043ED037A43E7ED0806FB05762660C4ED83
:107A8400035ABDE8F08300BF107B01206F12033B53
:107A94000000004F000000300000804F0000000094
:107AA400CDCCCC3D07EE901AFAEEE07A10B1012865
:107AB40019D07047B2EE067A67EE877A0C4A17EE51
:107AC400903A03F0004343F07C5307EE103A77EE0C
:107AD400877AFDEEE77AF8EEE77AFCEEE77A17EEBE
:107AE400903A13747047024BC3ED027A704700BF9B
:107AF400107B0120034B4FF00041002283E8060075
:087B0400704700BF107B012057
:040000052001784F0F
:00000001FF
