:020000042001D9
:10780000554D4F440001010002000000000000003F
:107810004B780120417801204778012043780120EE
:10782000457801200000000000000000000000007A
:107830000000000000000000000000000000000048
:1078400070477047704770477047104B104A2DE9DA
:10785000F041884607460021934202D003F8011FF9
:10786000FAE70C4B0C4CE41AA41000251E46A54266
:1078700005D056F8253003B198470135F7E7414662
:107880003846FFF7E1FFBDE8F08100BF9F78012097
:0C7890009F780120407801204078012002
:040000052001784B13
:00000001FF
